:020000020000FC
:0200000029C015
:1000540008E00EBF0FE50DBF00E004BB0FEF05BBCA
:1000640007BB08BB03B300950E943900FBCF68E0CF
:1000740078E0001F18F06A957A95D9F7683041F155
:10008400673019F16630F1F06530C9F06430A1F0E1
:10009400633079F0623051F0613029F0603001F062
:1000A40030EA38BB17C033EF38BB14C034E938BB6F
:1000B40011C031E938BB0EC033EC38BB0BC039E892
:1000C40038BB08C038E838BB05C033EB38BB02C0C6
:1000D40030E838BB089560E078E0079518F47A9525
:1000E400E1F703C063957A95C1F70795603081F015
:1000F400613089F0623091F0633099F06430A1F09E
:100104006530A9F06630B1F06730B9F06830C1F0FD
:1001140030EA38BB17C033EF38BB14C034E938BBFE
:1001240011C031E938BB0EC033EC38BB0BC039E821
:1001340038BB08C038E838BB05C033EB38BB02C055
:0601440030E838BB08950D
:00000001FF
