:100000000C942A000C943C000C943C000C943C0092
:100010000C943C000C943C000C943C000C943C0070
:100020000C943C000C943C000C943C000C943C0060
:100030000C943C000C943C000C943C000C943C0050
:100040000C943C000C943C000C943C000C943C0040
:100050000C943C0011241FBECFE5D8E0DEBFCDBF1D
:1000600020E0A0E6B0E001C01D92A53AB207E1F79A
:100070000E9466000C9469000C9400004091A2005C
:100080002091A3003091A400842F90E0F901E05A60
:10009000FF4F5081851B91096091A0007091A100D4
:1000A000860F971F9093A1008093A00040832F5F3D
:1000B0003F4F203431052CF43093A4002093A3004B
:1000C00008951092A4001092A30008950E943E008B
:0600D000FDCFF894FFCF04
:00000001FF
